:0300000002039761
:0C039700787FE4F6D8FD7581360203DEA5
:08000300FEFDFBF7EFDFBF7FFC
:1005FA00081E101010101010101012083F065B4F42
:10060A00666D7D077F6F777C395E797100400128BE
:0B061A0000012763011DFF021A000011
:10026D008D1C8F1EAF1C7E00EF640F704A75200F22
:10027D00E51F24FE601C046003020309752111753E
:10028D002211752311E50075F00A8485F025E5002E
:10029D008064752111850022E50075F06484F523D5
:1002AD00E50075F00A8475F00A8485F024E5007583
:1002BD00F00A8485F02522EF640A4E703FE5002494
:1002CD00FE601C04703675200A752111752211759A
:1002DD002311E50075F00A8485F025E5008017757A
:1002ED00200D752111752211752311E50075F00A88
:0D02FD008485F025E50075F00A84F52422C3
:10064400AD071FED600FE4FEEEC394FF7480948049
:0506540050EE0E80F3E2
:01065900227E
:03000B00020423C9
:0F042300C0E0C083C082C0D075D000C000C00749
:10043200C28C758CFE758A0CC3E51B9446E51A9432
:10044200004009751A00751B00631DFF741E2528E4
:10045200F8E6FFD293300010E500B5280B74082FA0
:10046200F8E6551DF580800774082FF8E6F580D26E
:1004720094C294E52890000393F580D295C295C268
:10048200930528C3E5289408748094804003752856
:0B04920000051BE51B7002051AD28C50
:0D049D00D007D000D0D0D082D083D0E03284
:10010000E5006401705BF52985002AAC29AD2AFE63
:100110007F0612031CEF7805CEC313CE13D8F98ED9
:100120002F640AF530C3E49530F500E4952FF5000F
:10013000750000850000E4F500F500C2D512066EDA
:100140007F901205C712067D20D5F07F401205C7AB
:1001500012067D20D5E57F911205C712067D20D5B8
:10016000DAE50064027054AF00FE7C037DE8120300
:100170000A7C00EF2500F52AEC3EF529FCAD2A7E2D
:10018000277F1012031CAD007C0012030AAB07AAE4
:1001900006AC29AD2A7E277F1012031CC374649518
:1001A00000FDE49400FC12030AC3E49BF500E49A0A
:0B01B000F500C3E49FF500E49EF5009D
:0101BB002221
:10050100E520640F7027E51F6401700BE52475F089
:100511000AA42525F50022E52475F00AA4FFE523A8
:1005210075F064A42F2525852200F50022E51F64BE
:1005310001700BE52475F00AA42525F50022E524B8
:0805410075F00AA42525F50060
:01054900228F
:10000E00C3E50094047480948050030200FFE51C45
:10001E00640F70047D0180027D00E51F6402700490
:10002E007C0180027C00EC5D6041E5006404702E72
:10003E00EF64014E701F741E2500F876017D05EDEC
:10004E00C394087480948040030200FF741E2DF840
:10005E00E4F60D80EAEF4E60030200FF8041E522D8
:10006E0060030200FF7522100200F8E500640670BE
:10007E0054E51C640A70047D0180027D00E5006475
:10008E000270047C0180027C00EC5D6014C3EF946E
:10009E0002EE9400405BD3EF9407EE940050528032
:1000AE0049C3EF9401EE9400400AEF9405EE9400DC
:1000BE0050028036EF64054E7037741E2500F8A688
:1000CE0007E4F52522E51C640A70047D0180027D9B
:1000DE0000E500640170047C0180027C00EC5D6030
:1000EE0009E52464057003F52522741E2500F8A683
:0100FE0007FA
:0100FF0022DE
:1004AA00C2D512066E7FA01205C712067D20D5F0AE
:1004BA00E4FF1205C712067D20D5E51205928F2B9F
:1004CA00120626E52B64557027750055752C01C355
:1004DA00E52C940874809480501112062612059215
:1004EA007400252CF8A607052C80E412068C8003DC
:0604FA0012054A12065A29
:0105000022D8
:10054A00C2D512066E7FA01205C712067D20D5F00D
:10055A00E4FF1205C712067D20D5E57FA11205C763
:10056A0012067D20D5DAE4F535C3E53594087480A2
:10057A009480501174002535F8E6FF1205C712065B
:08058A007D053580E402065AEC
:1001BC0075A0F07F0512064485A02D75A00F7F0554
:1001CC00120644AFA0EF422DE52DF4700302026A33
:1001DC00AFA0EF640F70F9E52D120371026777027F
:1001EC00537B023F7D022B7E0262B7024EBB023A6A
:1001FC00BD0226BE025DD70249DB0235DD0221DEDF
:10020C000258E70244EB0230ED021CEE0000026AD9
:10021C00E4F52E8049752E018044752E02803F75C1
:10022C002E03803A752E048035752E058030752E80
:10023C0006802B752E078026752E0A8021752E08B8
:10024C00801C752E098017752E148012752E0C804B
:10025C000D752E0D8008752E0E8003752E0FAF2E8A
:01026C00226F
:0F066E00D2B6D2B4120698C2B412069EC2B622F9
:10065A00C2B6C2B412069ED2B612069ED2B4120610
:04066A0098C2B4225C
:10062600C2B4D2B612069E30B40FC3E53694FF7438
:0E0636008094805004053680EEC2B602069E07
:0C068C00D2B4D2B612069EC2B6C2B4228E
:0F067D00D2B4D2B6C2D530B402D2D5C2B60022A2
:1005C7008F32E4F531C3E531940874809480501973
:1005D700E53225E0F532C2B612069E92B412069EA7
:1005E700D2B612069E053180DCC2B612069ED2B480
:0305F70002069E5B
:10059200C2B612069ED2B4E4F533C3E533940874AE
:1005A200809480501AD2B612069EE53425E0FFA24E
:1005B200B4E4334FF534C2B612069E053380DB1223
:0405C200069EAF34AE
:0105C6002212
:05069E00000000002235
:060698000000000000223A
:0106A3002234
:1003A3000206A3E493A3F8E493A34003F68001F2C7
:1003B30008DFF48029E493A3F85407240CC8C3335B
:1003C300C4540F4420C8834004F456800146F6DF2A
:1003D300E4800B01020408102040809005FAE47EBB
:1003E300019360BCA3FF543F30E509541FFEE4931F
:1003F300A360010ECF54C025E060A840B8E493A3E6
:10040300FAE493A3F8E493A3C8C582C8CAC583CA10
:10041300F0A3C8C582C8CAC583CADFE9DEE780BEC8
:0106250000D4
:10030A00EF8DF0A4A8F0CF8CF0A428CE8DF0A42E07
:02031A00FE22C1
:10031C00BC000BBE0029EF8DF084FFADF022E4CCC5
:10032C00F875F008EF2FFFEE33FEEC33FCEE9DEC8E
:10033C00984005FCEE9DFE0FD5F0E9E4CEFD22EDD4
:10034C00F8F5F0EE8420D21CFEADF075F008EF2F1E
:10035C00FFED33FD4007985006D5F0F222C398FD0F
:05036C000FD5F0EA22AC
:10037100D083D082F8E4937012740193700DA3A31B
:1003810093F8740193F5828883E47374029368602F
:06039100EFA3A3A380DF2F
:00000001FF
