:030000000200AB50
:0C00AB00787FE4F6D8FD75813C0200F27D
:08000300FEFDFBF7EFDFBF7FFC
:1002C500081F070103121110101013083F065B4F9A
:1002D500666D7D077F6F777C395E797100407301AC
:0C02E5002900012863011EFF021B00001D
:10000E008D1D8F1FAF1D7E00EF640F704A75210F7F
:10001E00E52024FE601C0460030200AA75221175FF
:10002E002311752411E53275F00A8485F026E53228
:10003E008064752211853423E53575F06484F524CA
:10004E00E53575F00A8475F00A8485F025E5357579
:10005E00F00A8485F02622EF640A4E703FE53724BD
:10006E00FE601C04703675210A75221175231175F8
:10007E002411E53375F00A8485F026E53380177573
:10008E00210D752211752311752411E53675F00AAF
:0D009E008485F026E53675F00A84F52522EC
:10031000AD071FED600FE4FEEEC394FF7480948080
:0503200050EE0E80F319
:0103250022B5
:03000B00020137B8
:0F013700C0E0C083C082C0D075D000C000C00738
:10014600C28C758CFE758A0CC3E51C9446E51B941F
:10015600004009751B00751C00631EFF741F2529CE
:10016600F8E6FFD293300010E53CB5290B74082F52
:10017600F8E6551EF580800774082FF8E6F580D25C
:1001860094C294E52990000393F580D295C295C256
:10019600930529C3E5299408748094804003752942
:0B01A60000051CE51C7002051BD28C3C
:0D01B100D007D000D0D0D082D083D0E03273
:1001BE00C2D51203507FA012029212035F20D5F017
:1001CE00E4FF12029212035F20D5E512025D8F2A20
:1001DE001202F2E52A64557027753155752B01C34D
:1001EE00E52B94087480948050111202F212025D75
:1001FE007431252BF8A607052B80E412036E8003BD
:06020E0012021512033C70
:0102140022C7
:10021500C2D51203507FA012029212035F20D5F0BF
:10022500E4FF12029212035F20D5E57FA11202922C
:1002350012035F20D5DAE4F52CC3E52C940874800D
:10024500948050117431252CF8E6FF1202921203A6
:080255005F052C80E402033C6C
:0F035000D2B6D2B412037AC2B4120380C2B6225C
:10033C00C2B6C2B4120380D2B6120380D2B4120376
:04034C007AC2B4229B
:1002F200C2B4D2B612038030B40FC3E52C94FF749B
:0E0302008094805004052C80EEC2B602038069
:0C036E00D2B4D2B6120380C2B6C2B422D0
:0F035F00D2B4D2B6C2D530B402D2D5C2B60022C3
:100292008F2EE4F52DC3E52D9408748094805019B7
:1002A200E52E25E0F52EC2B612038092B412038029
:1002B200D2B6120380052D80DCC2B6120380D2B4FE
:0302C200020380B4
:10025D00C2B6120380D2B4E4F52CC3E52C94087415
:10026D00809480501AD2B6120380E52D25E0FFA2AE
:10027D00B4E4334FF52DC2B6120380052C80DB128A
:04028D000380AF2D0E
:01029100224A
:05038000000000002256
:06037A000000000000225B
:10032600D2AFD2A8D2A9438901758CFE758A0CD2A8
:060336008C1201BE80FEE6
:1000B700020326E493A3F8E493A34003F68001F236
:1000C70008DFF48029E493A3F85407240CC8C3334A
:1000D700C4540F4420C8834004F456800146F6DF19
:1000E700E4800B01020408102040809002C5E47EE2
:1000F700019360BCA3FF543F30E509541FFEE4930E
:10010700A360010ECF54C025E060A840B8E493A3D4
:10011700FAE493A3F8E493A3C8C582C8CAC583CAFF
:10012700F0A3C8C582C8CAC583CADFE9DEE780BEB7
:0102F100000C
:00000001FF
