:0300000002000EED
:0C000E00787FE4F6D8FD758137020055BC
:08000300FEFDFBF7EFDFBF7FFC
:1002C900081F070103121110101013083F065B4F96
:1002D900666D7D077F6F777C395E797100407301A8
:0C02E9002900012863011EFF021B000019
:010399002241
:10031400AD071FED600FE4FEEEC394FF748094807C
:0503240050EE0E80F315
:0103290022B1
:03000B0002009A56
:0F009A00C0E0C083C082C0D075D000C000C007D6
:1000A900C28C758CFE758A0CC3E51C9446E51B94BD
:1000B900004009751B00751C00631EFF741F25296C
:1000C900F8E6FFD293300010E52EB5290B74082FFE
:1000D900F8E6551EF580800774082FF8E6F580D2FA
:1000E90094C294E52990000393F580D295C295C2F4
:1000F900930529C3E52994087480948040037529E0
:0B01090000051CE51C7002051BD28CD9
:0D011400D007D000D0D0D082D083D0E03210
:1003540085242AE52575F00AA42526F52B02021921
:10012100C2D51203647FA012029612037320D5F088
:10013100E4FF12029612037320D5E51202617531B4
:10014100008F321202F6AE31AF327C007D641201B3
:100151007C8F24AE31AF327C007D6412017C7E0045
:100161007F0ACFCDCFCECCCE12017C8F25AE31AF61
:0A017100327C007D0A12017C8D260D
:01017B002261
:1001D100C2D51203647FA012029612037320D5F0D8
:1001E100E4FF12029612037320D5E51202618F35E6
:1001F1001202F6E4F536C3E5369403748094805018
:10020100111202F6120261742A2536F8A607053684
:0802110080E4120382020340A5
:10021900C2D51203647FA012029612037320D5F08F
:10022900E4FF12029612037320D5E57FA11202960C
:1002390012037320D5DAE4F537C3E53794037480E4
:1002490094805011742A2537F8E6FF12029612039A
:0802590073053780E402034045
:0F036400D2B6D2B412038EC2B4120394C2B62220
:10034000C2B6C2B4120394D2B6120394D2B412034A
:040350008EC2B42283
:1002F600C2B4D2B612039430B40FC3E53394FF747C
:0E0306008094805004053380EEC2B60203944A
:0C038200D2B4D2B6120394C2B6C2B422A8
:0F037300D2B4D2B6C2D530B402D2D5C2B60022AF
:100296008F34E4F533C3E5339408748094805019A1
:1002A600E53425E0F534C2B612039492B4120394F1
:1002B600D2B6120394053380DCC2B6120394D2B4CC
:0302C6000203949C
:10026100C2B6120394D2B4E4F533C3E533940874EF
:10027100809480501AD2B6120394E53425E0FFA28F
:10028100B4E4334FF534C2B6120394053380DB1264
:040291000394AF34EF
:010295002246
:05039400000000002242
:06038E0000000000002247
:10032A00D2AFD2A8D2A9438901758CFE758A0CD2A4
:06033A008C12012180FE7F
:10001A0002032AE493A3F8E493A34003F68001F2CF
:10002A0008DFF48029E493A3F85407240CC8C333E7
:10003A00C4540F4420C8834004F456800146F6DFB6
:10004A00E4800B01020408102040809002C9E47E7B
:10005A00019360BCA3FF543F30E509541FFEE493AB
:10006A00A360010ECF54C025E060A840B8E493A372
:10007A00FAE493A3F8E493A3C8C582C8CAC583CA9D
:10008A00F0A3C8C582C8CAC583CADFE9DEE780BE55
:0102F5000008
:10017C00BC000BBE0029EF8DF084FFADF022E4CC67
:10018C00F875F008EF2FFFEE33FEEC33FCEE9DEC30
:10019C00984005FCEE9DFE0FD5F0E9E4CEFD22ED76
:1001AC00F8F5F0EE8420D21CFEADF075F008EF2FC0
:1001BC00FFED33FD4007985006D5F0F222C398FDB1
:0501CC000FD5F0EA224E
:00000001FF
