:030000000201D822
:0C01D800787FE4F6D8FD75815202021F0A
:08000300FEFDFBF7EFDFBF7FFC
:100417000848070103121110101013313F065B4FF4
:10042700666D7D077F6F777C395E79710040730158
:0C04370052000151630145FF0246000025
:1004B400AD071FED600FE4FEEEC394FF74809480DB
:0504C40050EE0E80F374
:0104C9002210
:03000B00020144AB
:10014400C0E0C0F0C083C082C0D075D000C000C081
:0D01540001C002C003C004C005C006C00702
:10016100758CFE758A0C74482552F8E6FFD29324EB
:1001710031F8E6F580E55264057003438080D2943E
:10018100C294E55290000393F580D295C295C29333
:100191000552C3E55294087480948040037552005F
:1001A1000547E54770020546B45811E546B4020C0F
:0C01B100E530F47007F546F5471204DE57
:1001BD00D007D006D005D004D003D002D001D00096
:0B01CD00D0D0D082D083D0F0D0E03240
:1004DE00854D20E54E75F00AA4254FF52102032A1D
:100264001203AFE48F0BF50AF509F5087FF47E015C
:10027400FDFCAB0BAA0AA909A808120016E4FB7A34
:1002840001F9F81200A18F0B8E0A8D098C08120453
:1002940096E47B64FAF9F8AF0BAE0AAD09AC081228
:1002A40000A18F4DE47B64FAF9F8AF0BAE0AAD09F7
:1002B400AC081200A1AC00AD01AE02AF03E47B0AAE
:1002C400FAF9F81200A18F4EE47B0AFAF9F8AF0BA1
:0E02D400AE0AAD09AC081200A1AF038F4F2295
:10044400C2D51204EE7F901203E41204FD20D5F00D
:10045400E4FF1203E41204FD20D5E51204EE7F91BB
:090464001203E41204FD20D5F29C
:01046D00226C
:1002E200C2D51204EE7FA01203E41204FD20D5F061
:1002F200E4FF1203E41204FD20D5E51203AF8F14CC
:10030200120496E4F515C3E51594037480948050A5
:10031200111204961203AF74202515F8A6070515CD
:0803220080E412050C0204CA7C
:10032A00C2D51204EE7FA01203E41204FD20D5F018
:10033A00E4FF1203E41204FD20D5E57FA11203E4D1
:10034A001204FD20D5DAE4F511C3E5119403748093
:10035A009480501174202511F8E6FF1203E4120468
:08036A00FD051180E40204CA44
:0F04EE00D2B6D2B4120518C2B412000EC2B62292
:1004CA00C2B6C2B412000ED2B612000ED2B41205CF
:0404DA0018C2B4226E
:10049600C2B4D2B612000E30B40FC3E50F94FF7487
:0E04A6008094805004050F80EEC2B602000E56
:0C050C00D2B4D2B612000EC2B6C2B422A5
:0F04FD00D2B4D2B6C2D530B402D2D5C2B6002224
:1003E4008F13E4F512C3E5129408748094805019B5
:1003F400E51325E0F513C2B612000E92B412000EF6
:10040400D2B612000E051280DCC2B612000ED2B4AF
:0304140002000ED5
:1003AF00C2B612000ED2B4E4F50FC3E50F94087471
:1003BF00809480501AD2B612000EE51025E0FFA2ED
:1003CF00B4E4334FF510C2B612000E050F80DB12E6
:0403DF00000EAF104D
:0103E30022F7
:05000E000000000022CB
:06051800000000000022BB
:10037200D2AFD2AAD2A9D28A438901758CFE758ADC
:100382000CD28C7530FFE530F47006120444120270
:1003920064E47FFAFEFDFCAB0BAA0AA909A808C314
:0D03A2001201334004C29080DDD29080D95A
:0300130002046E76
:10046E00C0E0C0F0C0D06330FFE530701485204D81
:10047E00E52175F00A84F54EE52175F00A8485F0C4
:08048E004FD0D0D0F0D0E032D5
:1001E400020372E493A3F8E493A34003F68001F2BC
:1001F40008DFF48029E493A3F85407240CC8C3331C
:10020400C4540F4420C8834004F456800146F6DFEA
:10021400E4800B0102040810204080900417E47E5F
:10022400019360BCA3FF543F30E509541FFEE493DF
:10023400A360010ECF54C025E060A840B8E493A3A6
:10024400FAE493A3F8E493A3C8C582C8CAC583CAD1
:10025400F0A3C8C582C8CAC583CADFE9DEE780BE89
:0104430000B8
:10001600E88FF0A4CC8BF0A42CFCE98EF0A42CFC89
:100026008AF0EDA42CFCEA8EF0A4CDA8F08BF0A407
:100036002DCC3825F0FDE98FF0A42CCD35F0FCEB66
:100046008EF0A4FEA9F0EB8FF0A4CFC5F02ECD392B
:0F005600FEE43CFCEAA42DCE35F0FDE43CFC2298
:1000650075F008758200EF2FFFEE33FECD33CDCC52
:1000750033CCC58233C5829BED9AEC99E5829840D5
:100085000CF582EE9BFEED9AFDEC99FC0FD5F0D6B2
:10009500E4CEFBE4CDFAE4CCF9A88222B800C1B9DC
:1000A5000059BA002DEC8BF084CFCECDFCE5F0CB1A
:1000B500F97818EF2FFFEE33FEED33FDEC33FCEB53
:1000C50033FB10D703994004EB99FB0FD8E5E4F90E
:1000D500FA227818EF2FFFEE33FEED33FDEC33FCFB
:1000E500C933C910D7059BE99A4007EC9BFCE99AEF
:1000F500F90FD8E0E4C9FAE4CCFB2275F010EF2F34
:10010500FFEE33FEED33FDCC33CCC833C810D70733
:100115009BEC9AE899400AED9BFDEC9AFCE899F86E
:0E0125000FD5F0DAE4CDFBE4CCFAE4C8F92201
:10013300EB9FF5F0EA9E42F0E99D42F0E89C45F022
:010143002299
:00000001FF
