:030000000201D426
:0C01D400787FE4F6D8FD75815202021B12
:08052600FEFDFBF7EFDFBF7FD4
:100421000848070103121110101013313F065B4FEA
:10043100666D7D077F6F777C395E7971004073014E
:0C04410052000151630145FF024600001B
:1004C200AD071FED600FE4FEEEC394FF74809480CD
:0504D20050EE0E80F366
:0104D7002202
:03000B0002013CB3
:10013C00C0E0C0F0C083C082C0D075D000C000C089
:0D014C0001C002C003C004C005C006C0070A
:10015900C28C758CFE758A0C74482552F8E6FFD25C
:10016900932431F8E6F580E55264057003438080F5
:10017900D294C294E55290052693F580D295C29502
:10018900C2930552C3E55294087480948040037564
:1001990052000547E54770020546B45811E546B4D3
:1001A900020CE530F47007F546F5471204ECD28CE1
:1001B900D007D006D005D004D003D002D001D0009A
:0B01C900D0D0D082D083D0F0D0E03244
:1004EC00854D20E54E75F00AA4254FF52102032D0C
:100260001203B9E48F0BF50AF509F5087FF47E0156
:10027000FDFCAB0BAA0AA909A80812000EE4FB7A40
:1002800001F9F81200998F0B8E0A8D098C0812045F
:10029000A4E47B64FAF9F8AF0BAE0AAD09AC08121E
:1002A00000998F4DE47B64FAF9F8AF0BAE0AAD0903
:1002B000AC08120099AC00AD01AE02AF03E47B0ABA
:1002C000FAF9F81200998F4EE47B0AFAF9F8AF0BAD
:0E02D000AE0AAD09AC08120099AF038F4F22A1
:10047A00C2D51204FC7F901203EE12050B20D5F0B0
:10048A00E4FF1203EE12050B20D5E51204FC7F915E
:09049A001203EE12050B20D5F24D
:0104A3002236
:1002DE00C2D51204FC7FA01203EE12050B20D5F03E
:1002EE00E4FF1203EE12050B20D5E51203B98F14AD
:1002FE001204A4E4F515C3E515940374809480509C
:10030E00111204A41203B974202515F8A6070515B9
:0E031E0080E412051A1204D875300075310102
:01032C0022AE
:10032D00C2D51204FC7FA01203EE12050B20D5F0EE
:10033D00E4FF1203EE12050B20D5E57FA11203EEAB
:10034D0012050B20D5DAE4F511C3E5119403748081
:10035D009480501174202511F8E6FF1203EE12055A
:0E036D000B051180E41204D8753000753101C3
:01037B00225F
:0F04FC00D2B6D2B412052EC2B4120006C2B62276
:1004D800C2B6C2B4120006D2B6120006D2B41205D1
:0404E8002EC2B4224A
:1004A400C2B4D2B612000630B40FC3E50F94FF7481
:0E04B4008094805004050F80EEC2B602000650
:0C051A00D2B4D2B6120006C2B6C2B4229F
:0F050B00D2B4D2B6C2D530B402D2D5C2B6002215
:1003EE008F13E4F512C3E5129408748094805019AB
:1003FE00E51325E0F513C2B612000692B4120006FC
:10040E00D2B6120006051280DCC2B6120006D2B4B5
:03041E00020006D3
:1003B900C2B6120006D2B4E4F50FC3E50F9408746F
:1003C900809480501AD2B6120006E51025E0FFA2EB
:1003D900B4E4334FF510C2B6120006050F80DB12E4
:0403E9000006AF104B
:0103ED0022ED
:050006000000000022D3
:06052E00000000000022A5
:10037C00D2AFD2A8D2A9D288438901758CFE758AD6
:10038C000CD28C7530FF12047AE530F47003120233
:10039C0060E47FFAFEFDFCAB0BAA0AA909A808C30E
:0D03AC0012012B4004C29080DDD29080D958
:0300030002044EA6
:10044E00C0E0C0F0C0D0C2A96330FFE530701485A3
:10045E00204DE52175F00A84F54EE52275F00A84EB
:0C046E0085F04FD2A9D0D0D0F0D0E03201
:1001E00002037CE493A3F8E493A34003F68001F2B6
:1001F00008DFF48029E493A3F85407240CC8C33320
:10020000C4540F4420C8834004F456800146F6DFEE
:10021000E4800B0102040810204080900421E47E59
:10022000019360BCA3FF543F30E509541FFEE493E3
:10023000A360010ECF54C025E060A840B8E493A3AA
:10024000FAE493A3F8E493A3C8C582C8CAC583CAD5
:10025000F0A3C8C582C8CAC583CADFE9DEE780BE8D
:01044D0000AE
:10000E00E88FF0A4CC8BF0A42CFCE98EF0A42CFC91
:10001E008AF0EDA42CFCEA8EF0A4CDA8F08BF0A40F
:10002E002DCC3825F0FDE98FF0A42CCD35F0FCEB6E
:10003E008EF0A4FEA9F0EB8FF0A4CFC5F02ECD3933
:0F004E00FEE43CFCEAA42DCE35F0FDE43CFC22A0
:10005D0075F008758200EF2FFFEE33FECD33CDCC5A
:10006D0033CCC58233C5829BED9AEC99E5829840DD
:10007D000CF582EE9BFEED9AFDEC99FC0FD5F0D6BA
:10008D00E4CEFBE4CDFAE4CCF9A88222B800C1B9E4
:10009D000059BA002DEC8BF084CFCECDFCE5F0CB22
:1000AD00F97818EF2FFFEE33FEED33FDEC33FCEB5B
:1000BD0033FB10D703994004EB99FB0FD8E5E4F916
:1000CD00FA227818EF2FFFEE33FEED33FDEC33FC03
:1000DD00C933C910D7059BE99A4007EC9BFCE99AF7
:1000ED00F90FD8E0E4C9FAE4CCFB2275F010EF2F3C
:1000FD00FFEE33FEED33FDCC33CCC833C810D7073C
:10010D009BEC9AE899400AED9BFDEC9AFCE899F876
:0E011D000FD5F0DAE4CDFBE4CCFAE4C8F92209
:10012B00EB9FF5F0EA9E42F0E99D42F0E89C45F02A
:01013B0022A1
:00000001FF
