:030000000200AB50
:0C00AB00787FE4F6D8FD75813C0200F27D
:08000300FEFDFBF7EFDFBF7FFC
:1002C500081E101010101010101012083F065B4F7A
:1002D500666D7D077F6F777C395E797100400128F7
:0B02E50000012763011DFF021A00004A
:10000E008D1C8F1EAF1C7E00EF640F704A75200F83
:10001E00E51F24FE601C0460030200AA7521117501
:10002E002211752311E53275F00A8485F025E5322B
:10003E008064752111853422E53575F06484F523CD
:10004E00E53575F00A8475F00A8485F024E535757A
:10005E00F00A8485F02522EF640A4E703FE53724BE
:10006E00FE601C04703675200A75211175221175FB
:10007E002311E53375F00A8485F025E53380177575
:10008E00200D752111752211752311E53675F00AB3
:0D009E008485F025E53675F00A84F52422EE
:10030F00AD071FED600FE4FEEEC394FF7480948081
:05031F0050EE0E80F31A
:0103240022B6
:03000B00020137B8
:0F013700C0E0C083C082C0D075D000C000C00738
:10014600C28C758CFE758A0CC3E51B9446E51A9421
:10015600004009751A00751B00631DFF741E2528D3
:10016600F8E6FFD293300010E53CB5280B74082F53
:10017600F8E6551DF580800774082FF8E6F580D25D
:1001860094C294E52890000393F580D295C295C257
:10019600930528C3E5289408748094804003752845
:0B01A60000051BE51B7002051AD28C3F
:0D01B100D007D000D0D0D082D083D0E03273
:1001BE00C2D512034F7FA012029212035E20D5F019
:1001CE00E4FF12029212035E20D5E512025D8F2922
:1001DE001202F1E52964557027753155752A01C350
:1001EE00E52A94087480948050111202F112025D77
:1001FE007431252AF8A607052A80E412036D8003C0
:06020E0012021512033B71
:0102140022C7
:10021500C2D512034F7FA012029212035E20D5F0C1
:10022500E4FF12029212035E20D5E57FA11202922D
:1002350012035E20D5DAE4F52BC3E52B9408748010
:10024500948050117431252BF8E6FF1202921203A7
:080255005E052B80E402033B6F
:0F034F00D2B6D2B4120379C2B412037FC2B6225F
:10033B00C2B6C2B412037FD2B612037FD2B4120379
:04034B0079C2B4229D
:1002F100C2B4D2B612037F30B40FC3E52B94FF749E
:0E0301008094805004052B80EEC2B602037F6C
:0C036D00D2B4D2B612037FC2B6C2B422D2
:0F035E00D2B4D2B6C2D530B402D2D5C2B60022C4
:100292008F2DE4F52CC3E52C9408748094805019BA
:1002A200E52D25E0F52DC2B612037F92B412037F2D
:1002B200D2B612037F052C80DCC2B612037FD2B401
:0302C20002037FB5
:10025D00C2B612037FD2B4E4F52BC3E52B94087418
:10026D00809480501AD2B612037FE52C25E0FFA2B0
:10027D00B4E4334FF52CC2B612037F052B80DB128D
:04028D00037FAF2C10
:01029100224A
:05037F00000000002257
:060379000000000000225C
:10032500D2AFD2A8D2A9438901758CFE758A0CD2A9
:060335008C1201BE80FEE7
:1000B700020325E493A3F8E493A34003F68001F237
:1000C70008DFF48029E493A3F85407240CC8C3334A
:1000D700C4540F4420C8834004F456800146F6DF19
:1000E700E4800B01020408102040809002C5E47EE2
:1000F700019360BCA3FF543F30E509541FFEE4930E
:10010700A360010ECF54C025E060A840B8E493A3D4
:10011700FAE493A3F8E493A3C8C582C8CAC583CAFF
:10012700F0A3C8C582C8CAC583CADFE9DEE780BEB7
:0102F000000D
:00000001FF
