:030000000201D02A
:0C01D000787FE4F6D8FD7581520202171A
:08053A00FEFDFBF7EFDFBF7FC0
:100461000848070103121110101013313F065B4FAA
:10047100666D7D077F6F777C395E7971004073010E
:0C04810052000151630145FF02460000DB
:1004D600AD071FED600FE4FEEEC394FF74809480B9
:0504E60050EE0E80F352
:0104EB0022EE
:03000B0002013CB3
:10013C00C0E0C0F0C083C082C0D075D000C000C089
:0D014C0001C002C003C004C005C006C0070A
:10015900758CFE758A0C74482552F8E6FFD29324F3
:1001690031F8E6F580E55264057003438080D29446
:10017900C294E55290053A93F580D295C295C293FF
:100189000552C3E552940874809480400375520067
:100199000547E54770020546B45811E546B4020C17
:0C01A900E530F47007F546F5471205003C
:1001B500D007D006D005D004D003D002D001D0009E
:0B01C500D0D0D082D083D0F0D0E03248
:10050000854D20E54E75F00AA4254FF521020334F0
:10025C001203F9E48F13F512F511F5107FF47E01FA
:10026C00FDFCAB13AA12A911A81012000EE4FB7A24
:10027C0001F9F81200998F138E128D118C10120443
:10028C00B8E47B64FAF9F8AF13AE12AD11AC1012EE
:10029C0000998F4DE47B64FAF9F8AF13AE12AD11EF
:1002AC00AC10120099AC00AD01AE02AF03E47B0AB6
:1002BC00FAF9F81200998F4EE47B0AFAF9F8AF13A9
:0E02CC00AE12AD11AC10120099AF038F4F228D
:10048E00C2D51205107F9012042E12051F20D5F032
:10049E00E4FF12042E12051F20D5E51205107F91E0
:0904AE0012042E12051F20D5F2E4
:0104B7002222
:10037C00C2D51205107FA012042E12051F20D5F035
:10038C00E4FF12042E12051F20D5E5E4F517C3E592
:10039C001794027480948050111203F9742025175D
:1003AC00F8A6071204B8051780E412052E0204EC17
:10033400C2D51205107FA012042E12051F20D5F07D
:10034400E4FF12042E12051F20D5E57FA112042E0E
:1003540012051F20D5DAE4F50DC3E50D940374806E
:10036400948050117420250DF8E6FF12042E120516
:080374001F050D80E40204ECFA
:0F051000D2B6D2B4120542C2B4120006C2B6224D
:1004EC00C2B6C2B4120006D2B6120006D2B41205BD
:0404FC0042C2B42222
:1004B800C2B4D2B612000630B40FC3E50894FF7474
:0E04C8008094805004050880EEC2B602000643
:0C052E00D2B4D2B6120006C2B6C2B4228B
:0F051F00D2B4D2B6C2D530B402D2D5C2B6002201
:10042E008F0FE4F50EC3E50E940874809480501976
:10043E00E50F25E0F50FC2B612000692B4120006C3
:10044E00D2B6120006050E80DCC2B6120006D2B479
:03045E0002000693
:1003F900C2B6120006D2B4E4F508C3E5089408743D
:10040900809480501AD2B6120006E50925E0FFA2B1
:10041900B4E4334FF509C2B6120006050880DB12B1
:040429000006AF0911
:01042D0022AC
:050006000000000022D3
:0605420000000000002291
:1003BC00D2AFD2A8D2A9C28A438901758CFE758AA4
:1003CC000CD28C7530FFE530F4700612048E1202DC
:1003DC005CE47FFAFEFDFCAB13AA12A911A810C3B2
:0D03EC0012012B4004C29080DDD29080D918
:030003000202DA1C
:1002DA00C0E0C0F0C083C082C0D075D000C000C0EA
:1002EA0001C002C003C004C005C006C007C2A8639B
:1002FA0030FF120500E530701485204DE52175F0B8
:10030A000A84F54EE52175F00A8485F04FD2A8D00B
:10031A0007D006D005D004D003D002D001D000D037
:0A032A00D0D082D083D0F0D0E032B2
:1001DC000203BCE493A3F8E493A34003F68001F27A
:1001EC0008DFF48029E493A3F85407240CC8C33324
:1001FC00C4540F4420C8834004F456800146F6DFF3
:10020C00E4800B0102040810204080900461E47E1D
:10021C00019360BCA3FF543F30E509541FFEE493E7
:10022C00A360010ECF54C025E060A840B8E493A3AE
:10023C00FAE493A3F8E493A3C8C582C8CAC583CAD9
:10024C00F0A3C8C582C8CAC583CADFE9DEE780BE91
:01048D00006E
:10000E00E88FF0A4CC8BF0A42CFCE98EF0A42CFC91
:10001E008AF0EDA42CFCEA8EF0A4CDA8F08BF0A40F
:10002E002DCC3825F0FDE98FF0A42CCD35F0FCEB6E
:10003E008EF0A4FEA9F0EB8FF0A4CFC5F02ECD3933
:0F004E00FEE43CFCEAA42DCE35F0FDE43CFC22A0
:10005D0075F008758200EF2FFFEE33FECD33CDCC5A
:10006D0033CCC58233C5829BED9AEC99E5829840DD
:10007D000CF582EE9BFEED9AFDEC99FC0FD5F0D6BA
:10008D00E4CEFBE4CDFAE4CCF9A88222B800C1B9E4
:10009D000059BA002DEC8BF084CFCECDFCE5F0CB22
:1000AD00F97818EF2FFFEE33FEED33FDEC33FCEB5B
:1000BD0033FB10D703994004EB99FB0FD8E5E4F916
:1000CD00FA227818EF2FFFEE33FEED33FDEC33FC03
:1000DD00C933C910D7059BE99A4007EC9BFCE99AF7
:1000ED00F90FD8E0E4C9FAE4CCFB2275F010EF2F3C
:1000FD00FFEE33FEED33FDCC33CCC833C810D7073C
:10010D009BEC9AE899400AED9BFDEC9AFCE899F876
:0E011D000FD5F0DAE4CDFBE4CCFAE4C8F92209
:10012B00EB9FF5F0EA9E42F0E99D42F0E89C45F02A
:01013B0022A1
:00000001FF
