:0300000002000EED
:0C000E00787FE4F6D8FD758138020055BB
:08000300FEFDFBF7EFDFBF7FFC
:1002B100081F070103121110101013083F065B4FAE
:1002C100666D7D077F6F777C395E797100407301C0
:0C02D1002900012863011EFF021B000031
:010371002269
:1002FC00AD071FED600FE4FEEEC394FF7480948095
:05030C0050EE0E80F32D
:0103110022C9
:03000B0002009A56
:0F009A00C0E0C083C082C0D075D000C000C007D6
:1000A900C28C758CFE758A0CC3E51C9446E51B94BD
:1000B900004009751B00751C00631EFF741F25296C
:1000C900F8E6FFD293300010E52EB5290B74082FFE
:1000D900F8E6551EF580800774082FF8E6F580D2FA
:1000E90094C294E52990000393F580D295C295C2F4
:1000F900930529C3E52994087480948040037529E0
:0B01090000051CE51C7002051BD28CD9
:0D011400D007D000D0D0D082D083D0E03210
:10020600C2D512033C7F9012027E12034B20D5F01A
:10021600E4FF12027E12034B20D5E5120249750057
:10022600008F001202DEAE00AF007C007D6412017A
:10023600218F2AAE00AF007C007D641201218D2B38
:030246000201BEF4
:10017600C2D512033C7FA012027E12034B20D5F09B
:10018600E4FF12027E12034B20D5E51202498F319D
:100196001202DEE4F532C3E5329403748094805093
:1001A600111202DE120249742A2532F8A607053218
:0801B60080E412035A02032841
:1001BE00C2D512033C7FA012027E12034B20D5F053
:1001CE00E4FF12027E12034B20D5E57FA112027EC0
:1001DE0012034B20D5DAE4F537C3E5379403748068
:1001EE0094805011742A2537F8E6FF12027E12030E
:0801FE004B053780E4020328E1
:0F033C00D2B6D2B4120366C2B412036CC2B62298
:10032800C2B6C2B412036CD2B612036CD2B41203B2
:0403380066C2B422C3
:1002DE00C2B4D2B612036C30B40FC3E53894FF74B7
:0E02EE008094805004053880EEC2B602036C86
:0C035A00D2B4D2B612036CC2B6C2B422F8
:0F034B00D2B4D2B6C2D530B402D2D5C2B60022D7
:10027E008F34E4F533C3E5339408748094805019B9
:10028E00E53425E0F534C2B612036C92B412036C59
:10029E00D2B612036C053380DCC2B612036CD2B434
:0302AE0002036CDC
:10024900C2B612036CD2B4E4F535C3E5359408742B
:10025900809480501AD2B612036CE53625E0FFA2CD
:10026900B4E4334FF536C2B612036C053580DB12A0
:04027900036CAF362D
:01027D00225E
:05036C0000000000226A
:060366000000000000226F
:10031200D2AFD2A8D2A9438901758CFE758A0CD2BC
:060322008C12000080FEB9
:10001A00020312E493A3F8E493A34003F68001F2E7
:10002A0008DFF48029E493A3F85407240CC8C333E7
:10003A00C4540F4420C8834004F456800146F6DFB6
:10004A00E4800B01020408102040809002B1E47E93
:10005A00019360BCA3FF543F30E509541FFEE493AB
:10006A00A360010ECF54C025E060A840B8E493A372
:10007A00FAE493A3F8E493A3C8C582C8CAC583CA9D
:10008A00F0A3C8C582C8CAC583CADFE9DEE780BE55
:0102DD000020
:10012100BC000BBE0029EF8DF084FFADF022E4CCC2
:10013100F875F008EF2FFFEE33FEEC33FCEE9DEC8B
:10014100984005FCEE9DFE0FD5F0E9E4CEFD22EDD1
:10015100F8F5F0EE8420D21CFEADF075F008EF2F1B
:10016100FFED33FD4007985006D5F0F222C398FD0C
:050171000FD5F0EA22A9
:00000001FF
