:0300000002000EED
:0C000E00787FE4F6D8FD758136020055BD
:08000300FEFDFBF7EFDFBF7FFC
:10022800081F070103121110101013083F065B4F37
:10023800666D7D077F6F777C395E79710040730149
:0C0248002900012863011EFF021B0000BA
:0102E80022F3
:10027300AD071FED600FE4FEEEC394FF748094801E
:0502830050EE0E80F3B7
:010288002253
:03000B0002009A56
:0F009A00C0E0C083C082C0D075D000C000C007D6
:1000A900C28C758CFE758A0CC3E51C9446E51B94BD
:1000B900004009751B00751C00631EFF741F25296C
:1000C900F8E6FFD293300010E536B5290B74082FF6
:1000D900F8E6551EF580800774082FF8E6F580D2FA
:1000E90094C294E52990000393F580D295C295C2F4
:1000F900930529C3E52994087480948040037529E0
:0B01090000051CE51C7002051BD28CD9
:0D011400D007D000D0D0D082D083D0E03210
:10012100C2D51202B37FA01201F51202C220D5F08E
:10013100E4FF1201F51202C220D5E51201C08F2A97
:10014100120255E52A64557027753155752B01C387
:10015100E52B94087480948050111202551201C04D
:100161007431252BF8A607052B80E41202D18003F8
:0601710012017812029F4A
:010177002265
:10017800C2D51202B37FA01201F51202C220D5F037
:10018800E4FF1201F51202C220D5E57FA11201F5A4
:100198001202C220D5DAE4F52CC3E52C9408748049
:1001A800948050117431252CF8E6FF1201F51202E3
:0801B800C2052C80E402029F45
:0F02B300D2B6D2B41202DDC2B41202E3C2B62236
:10029F00C2B6C2B41202E3D2B61202E3D2B4120251
:0402AF00DDC2B422D6
:10025500C2B4D2B61202E330B40FC3E52C94FF74D6
:0E0265008094805004052C80EEC2B60202E3A5
:0C02D100D2B4D2B61202E3C2B6C2B4220C
:0F02C200D2B4D2B6C2D530B402D2D5C2B6002261
:1001F5008F2EE4F52DC3E52D940874809480501955
:10020500E52E25E0F52EC2B61202E392B41202E302
:10021500D2B61202E3052D80DCC2B61202E3D2B4D7
:030225000202E3EF
:1001C000C2B61202E3D2B4E4F52CC3E52C94087451
:1001D000809480501AD2B61202E3E52D25E0FFA2EA
:1001E000B4E4334FF52DC2B61202E3052C80DB12C6
:0401F00002E3AF2D4A
:0101F40022E8
:0502E3000000000022F4
:0602DD00000000000022F9
:10028900D2AFD2A8D2A9438901758CFE758A0CD246
:060299008C12012180FE21
:10001A00020289E493A3F8E493A34003F68001F271
:10002A0008DFF48029E493A3F85407240CC8C333E7
:10003A00C4540F4420C8834004F456800146F6DFB6
:10004A00E4800B0102040810204080900228E47E1C
:10005A00019360BCA3FF543F30E509541FFEE493AB
:10006A00A360010ECF54C025E060A840B8E493A372
:10007A00FAE493A3F8E493A3C8C582C8CAC583CA9D
:10008A00F0A3C8C582C8CAC583CADFE9DEE780BE55
:0102540000A9
:00000001FF
