:030000000201D129
:0C01D100787FE4F6D8FD75815102021819
:0804E400FEFDFBF7EFDFBF7F17
:100424000848070103121110101013313F065B4FE7
:10043400666D7D077F6F777C395E7971004073014B
:0904440051000145FF02460000D1
:03000B0002013CB3
:10013C00C0E0C0F0C083C082C0D075D000C000C089
:0D014C0001C002C003C004C005C006C0070A
:10015900758CFE758A0C74482551F8E6FFD29324F4
:1001690031F8E6F580E55164057003438080D29447
:10017900C294E5519004E493F580D295C295C29357
:100189000551C3E55194087480948040037551006A
:100199000547E54770020546C394D0E546940740F4
:0D01A9000CE530F47007F546F5471204AA86
:1001B600D007D006D005D004D003D002D001D0009D
:0B01C600D0D0D082D083D0F0D0E03247
:1004AA00854D20E54E75F00AA4254FF52102037FFC
:10025D001203BCE48F11F510F50FF50E7FF47E013E
:10026D00FDFCAB11AA10A90FA80E12000EE4FB7A2B
:10027D0001F9F81200998F118E108D0F8C0E12044A
:10028D0078E47B64FAF9F8AF11AE10AD0FAC0E1235
:10029D0000998F4DE47B64FAF9F8AF11AE10AD0FF4
:1002AD00AC0E120099AC00AD01AE02AF03E47B0AB7
:1002BD00FAF9F81200998F4EE47B0AFAF9F8AF11AA
:0E02CD00AE10AD0FAC0E120099AF038F4F2292
:10044E00C2D51204BA7F901203F11204C920D5F05E
:10045E00E4FF1203F11204C920D5E51204BA7F910C
:09046E001203F11204C920D5F2B9
:010477002262
:10033700C2D51204BA7FA01203F11204C920D5F066
:10034700E4FF1203F11204C920D5E57FA01203F1DF
:100357001204C920D5DAE4F512C3E51294027480B9
:10036700948050111203BC74202512F8A6071204BA
:0803770078051280E40204D8AD
:10037F00C2D51204BA7FA01203F11204C920D5F01E
:10038F00E4FF1203F11204C920D5E5E4F50BC3E530
:10039F000B94027480948050117420250BF8E6FFA3
:0D03AF001203F1120478050B80E40204969D
:0F04BA00D2B6D2B41204ECC2B4120006C2B622FB
:10049600C2B6C2B4120006D2B6120006D2B4120414
:0404A600ECC2B422CE
:10047800C2B4D2B612000630B40FC3E50C94FF74B0
:0E0488008094805004050C80EEC2B60200067F
:0C04D800D2B4D2B6120006C2B6C2B422E2
:0F04C900D2B4D2B6C2D530B402D2D5C2B6002258
:1003F1008F0DE4F50CC3E50C9408748094805019BA
:10040100E50D25E0F50DC2B612000692B412000604
:10041100D2B6120006050C80DCC2B6120006D2B4B8
:03042100020006D0
:1003BC00C2B6120006D2B4E4F508C3E5089408747A
:1003CC00809480501AD2B6120006E50925E0FFA2EF
:1003DC00B4E4334FF509C2B6120006050880DB12EF
:0403EC000006AF094F
:0103F00022EA
:050006000000000022D3
:0604EC00000000000022E8
:1002DB00D2AFD2A8D2A9C288438901758CFE758A88
:1002EB000CD28C7530FF12044E12025D12037FE5A7
:1002FB0030F4700812044E12025D801485204DE517
:10030B002175F00A84F54EE52175F00A8485F04FCE
:10031B00E47FFAFEFDFCAB11AA10A90FA80EC312C5
:0C032B00012B4004C29080C7D29080C318
:030003000204F202
:0404F2006330FF3242
:1001DD000202DBE493A3F8E493A34003F68001F25B
:1001ED0008DFF48029E493A3F85407240CC8C33323
:1001FD00C4540F4420C8834004F456800146F6DFF2
:10020D00E4800B0102040810204080900424E47E59
:10021D00019360BCA3FF543F30E509541FFEE493E6
:10022D00A360010ECF54C025E060A840B8E493A3AD
:10023D00FAE493A3F8E493A3C8C582C8CAC583CAD8
:10024D00F0A3C8C582C8CAC583CADFE9DEE780BE90
:01044D0000AE
:10000E00E88FF0A4CC8BF0A42CFCE98EF0A42CFC91
:10001E008AF0EDA42CFCEA8EF0A4CDA8F08BF0A40F
:10002E002DCC3825F0FDE98FF0A42CCD35F0FCEB6E
:10003E008EF0A4FEA9F0EB8FF0A4CFC5F02ECD3933
:0F004E00FEE43CFCEAA42DCE35F0FDE43CFC22A0
:10005D0075F008758200EF2FFFEE33FECD33CDCC5A
:10006D0033CCC58233C5829BED9AEC99E5829840DD
:10007D000CF582EE9BFEED9AFDEC99FC0FD5F0D6BA
:10008D00E4CEFBE4CDFAE4CCF9A88222B800C1B9E4
:10009D000059BA002DEC8BF084CFCECDFCE5F0CB22
:1000AD00F97818EF2FFFEE33FEED33FDEC33FCEB5B
:1000BD0033FB10D703994004EB99FB0FD8E5E4F916
:1000CD00FA227818EF2FFFEE33FEED33FDEC33FC03
:1000DD00C933C910D7059BE99A4007EC9BFCE99AF7
:1000ED00F90FD8E0E4C9FAE4CCFB2275F010EF2F3C
:1000FD00FFEE33FEED33FDCC33CCC833C810D7073C
:10010D009BEC9AE899400AED9BFDEC9AFCE899F876
:0E011D000FD5F0DAE4CDFBE4CCFAE4C8F92209
:10012B00EB9FF5F0EA9E42F0E99D42F0E89C45F02A
:01013B0022A1
:00000001FF
