:030000000201D129
:0C01D100787FE4F6D8FD75815202021818
:08052E00FEFDFBF7EFDFBF7FCC
:10046B000848070103121110101013313F065B4FA0
:10047B00666D7D077F6F777C395E79710040730104
:0C048B0052000151630145FF02460000D1
:03000B0002013CB3
:10013C00C0E0C0F0C083C082C0D075D000C000C089
:0D014C0001C002C003C004C005C006C0070A
:10015900758CFE758A0C74482552F8E6FFD29324F3
:1001690031F8E6F580E55264057003438080D29446
:10017900C294E55290052E93F580D295C295C2930B
:100189000552C3E552940874809480400375520067
:100199000547E54770020546C394D0E546940740F4
:0D01A9000CE530F47007F546F5471204F43C
:1001B600D007D006D005D004D003D002D001D0009D
:0B01C600D0D0D082D083D0F0D0E03247
:1004F400854D20E54E75F00AA4254FF5210203C66B
:10025D00120403E48F14F513F512F5117FF47E01EA
:10026D00FDFCAB14AA13A912A81112000EE4FB7A1F
:10027D0001F9F81200998F148E138D128C1112043E
:10028D00C2E47B64FAF9F8AF14AE13AD12AC1112DF
:10029D0000998F4DE47B64FAF9F8AF14AE13AD12EB
:1002AD00AC11120099AC00AD01AE02AF03E47B0AB4
:1002BD00FAF9F81200998F4EE47B0AFAF9F8AF14A7
:0E02CD00AE13AD12AC11120099AF038F4F2289
:10049800C2D51205047F9012043812051320D5F036
:1004A800E4FF12043812051320D5E51205047F91E4
:0904B80012043812051320D5F2DC
:0104C1002218
:10033500C2D51205047FA012043812051320D5F08A
:10034500E4FF12043812051320D5E57FA012043806
:1003550012051320D5DAE4F50EC3E50E9402748078
:10036500948050111204037420250EF8A607120478
:0B037500C2050E80E41205220204E025
:1003C600C2D51205047FA012043812051320D5F0F9
:1003D600E4FF12043812051320D5E5E4F50BC3E556
:1003E6000B94027480948050117420250BF8E6FF5C
:0D03F6001204381204C2050B80E40204E07A
:0F050400D2B6D2B4120536C2B4120006C2B62265
:1004E000C2B6C2B4120006D2B6120006D2B41205C9
:0404F00036C2B4223A
:1004C200C2B4D2B612000630B40FC3E50F94FF7463
:0E04D2008094805004050F80EEC2B602000632
:0C052200D2B4D2B6120006C2B6C2B42297
:0F051300D2B4D2B6C2D530B402D2D5C2B600220D
:100438008F10E4F50FC3E50F940874809480501969
:10044800E51025E0F510C2B612000692B4120006B7
:10045800D2B6120006050F80DCC2B6120006D2B46E
:0304680002000689
:10040300C2B6120006D2B4E4F50FC3E50F94087424
:10041300809480501AD2B6120006E51025E0FFA2A0
:10042300B4E4334FF510C2B6120006050F80DB1299
:040433000006AF1000
:0104370022A2
:050006000000000022D3
:060536000000000000229D
:10038000D2AFD2A8D2A9C28A438901758CFE758AE0
:100390000CD28C7530FF12049812025D1203C6E570
:1003A00030F4700612049812025DE47FFAFEFDFC40
:1003B000AB14AA13A912A811C312012B4004C290B6
:0603C00080DDD29080D91F
:030003000202DB1B
:1002DB00C0E0C0F0C083C082C0D075D000C000C0E9
:1002EB0001C002C003C004C005C006C007C2A8639A
:1002FB0030FF120335E530701485204DE52175F084
:10030B000A84F54EE52175F00A8485F04FD2A8D00A
:10031B0007D006D005D004D003D002D001D000D036
:0A032B00D0D082D083D0F0D0E032B1
:1001DD00020380E493A3F8E493A34003F68001F2B5
:1001ED0008DFF48029E493A3F85407240CC8C33323
:1001FD00C4540F4420C8834004F456800146F6DFF2
:10020D00E4800B010204081020408090046BE47E12
:10021D00019360BCA3FF543F30E509541FFEE493E6
:10022D00A360010ECF54C025E060A840B8E493A3AD
:10023D00FAE493A3F8E493A3C8C582C8CAC583CAD8
:10024D00F0A3C8C582C8CAC583CADFE9DEE780BE90
:010497000064
:10000E00E88FF0A4CC8BF0A42CFCE98EF0A42CFC91
:10001E008AF0EDA42CFCEA8EF0A4CDA8F08BF0A40F
:10002E002DCC3825F0FDE98FF0A42CCD35F0FCEB6E
:10003E008EF0A4FEA9F0EB8FF0A4CFC5F02ECD3933
:0F004E00FEE43CFCEAA42DCE35F0FDE43CFC22A0
:10005D0075F008758200EF2FFFEE33FECD33CDCC5A
:10006D0033CCC58233C5829BED9AEC99E5829840DD
:10007D000CF582EE9BFEED9AFDEC99FC0FD5F0D6BA
:10008D00E4CEFBE4CDFAE4CCF9A88222B800C1B9E4
:10009D000059BA002DEC8BF084CFCECDFCE5F0CB22
:1000AD00F97818EF2FFFEE33FEED33FDEC33FCEB5B
:1000BD0033FB10D703994004EB99FB0FD8E5E4F916
:1000CD00FA227818EF2FFFEE33FEED33FDEC33FC03
:1000DD00C933C910D7059BE99A4007EC9BFCE99AF7
:1000ED00F90FD8E0E4C9FAE4CCFB2275F010EF2F3C
:1000FD00FFEE33FEED33FDCC33CCC833C810D7073C
:10010D009BEC9AE899400AED9BFDEC9AFCE899F876
:0E011D000FD5F0DAE4CDFBE4CCFAE4C8F92209
:10012B00EB9FF5F0EA9E42F0E99D42F0E89C45F02A
:01013B0022A1
:00000001FF
